{
  "contractName": "Lottery",
  "abi": [
    {
      "inputs": [],
      "stateMutability": "nonpayable",
      "type": "constructor"
    },
    {
      "inputs": [],
      "name": "lotteryId",
      "outputs": [
        {
          "internalType": "uint256",
          "name": "",
          "type": "uint256"
        }
      ],
      "stateMutability": "view",
      "type": "function",
      "constant": true
    },
    {
      "inputs": [],
      "name": "owner",
      "outputs": [
        {
          "internalType": "address",
          "name": "",
          "type": "address"
        }
      ],
      "stateMutability": "view",
      "type": "function",
      "constant": true
    },
    {
      "inputs": [
        {
          "internalType": "uint256",
          "name": "",
          "type": "uint256"
        }
      ],
      "name": "players",
      "outputs": [
        {
          "internalType": "address payable",
          "name": "",
          "type": "address"
        }
      ],
      "stateMutability": "view",
      "type": "function",
      "constant": true
    },
    {
      "inputs": [
        {
          "internalType": "uint256",
          "name": "",
          "type": "uint256"
        }
      ],
      "name": "winner",
      "outputs": [
        {
          "internalType": "address",
          "name": "",
          "type": "address"
        }
      ],
      "stateMutability": "view",
      "type": "function",
      "constant": true
    },
    {
      "inputs": [],
      "name": "enter",
      "outputs": [],
      "stateMutability": "payable",
      "type": "function",
      "payable": true
    },
    {
      "inputs": [],
      "name": "getPlayers",
      "outputs": [
        {
          "internalType": "address payable[]",
          "name": "",
          "type": "address[]"
        }
      ],
      "stateMutability": "view",
      "type": "function",
      "constant": true
    },
    {
      "inputs": [],
      "name": "getBalance",
      "outputs": [
        {
          "internalType": "uint256",
          "name": "",
          "type": "uint256"
        }
      ],
      "stateMutability": "view",
      "type": "function",
      "constant": true
    },
    {
      "inputs": [],
      "name": "getLotteryId",
      "outputs": [
        {
          "internalType": "uint256",
          "name": "",
          "type": "uint256"
        }
      ],
      "stateMutability": "view",
      "type": "function",
      "constant": true
    },
    {
      "inputs": [],
      "name": "getRandomNumber",
      "outputs": [
        {
          "internalType": "uint256",
          "name": "",
          "type": "uint256"
        }
      ],
      "stateMutability": "view",
      "type": "function",
      "constant": true
    },
    {
      "inputs": [],
      "name": "pickWinner",
      "outputs": [],
      "stateMutability": "nonpayable",
      "type": "function"
    },
    {
      "inputs": [],
      "name": "getWinners",
      "outputs": [
        {
          "internalType": "address[]",
          "name": "",
          "type": "address[]"
        }
      ],
      "stateMutability": "view",
      "type": "function",
      "constant": true
    }
  ],
  "bytecode": "0x608060405234801561001057600080fd5b50336000806101000a81548173ffffffffffffffffffffffffffffffffffffffff021916908373ffffffffffffffffffffffffffffffffffffffff1602179055506000600381905550610cb3806100686000396000f3fe60806040526004361061009c5760003560e01c8063900aafaf11610064578063900aafaf14610176578063dbdff2c1146101a1578063df15c37e146101cc578063e580f47b146101f7578063e97dcb6214610222578063f71d96cb1461022c5761009c565b806312065fe0146100a15780631cbeae5e146100cc5780635d495aea146101095780638b5b9ccc146101205780638da5cb5b1461014b575b600080fd5b3480156100ad57600080fd5b506100b6610269565b6040516100c391906107e2565b60405180910390f35b3480156100d857600080fd5b506100f360048036038101906100ee919061082e565b610271565b604051610100919061089c565b60405180910390f35b34801561011557600080fd5b5061011e6102b0565b005b34801561012c57600080fd5b506101356104c5565b6040516101429190610987565b60405180910390f35b34801561015757600080fd5b50610160610553565b60405161016d919061089c565b60405180910390f35b34801561018257600080fd5b5061018b610577565b60405161019891906107e2565b60405180910390f35b3480156101ad57600080fd5b506101b6610581565b6040516101c391906107e2565b60405180910390f35b3480156101d857600080fd5b506101e16105d5565b6040516101ee9190610a67565b60405180910390f35b34801561020357600080fd5b5061020c610663565b60405161021991906107e2565b60405180910390f35b61022a610669565b005b34801561023857600080fd5b50610253600480360381019061024e919061082e565b6106e3565b6040516102609190610a98565b60405180910390f35b600047905090565b6002818154811061028157600080fd5b906000526020600020016000915054906101000a900473ffffffffffffffffffffffffffffffffffffffff1681565b60008054906101000a900473ffffffffffffffffffffffffffffffffffffffff1673ffffffffffffffffffffffffffffffffffffffff163373ffffffffffffffffffffffffffffffffffffffff161461030857600080fd5b6000600180549050610318610581565b6103229190610ae2565b90506001818154811061033857610337610b13565b5b9060005260206000200160009054906101000a900473ffffffffffffffffffffffffffffffffffffffff1673ffffffffffffffffffffffffffffffffffffffff166108fc479081150290604051600060405180830381858888f193505050501580156103a8573d6000803e3d6000fd5b506002600182815481106103bf576103be610b13565b5b9060005260206000200160009054906101000a900473ffffffffffffffffffffffffffffffffffffffff169080600181540180825580915050600190039060005260206000200160009091909190916101000a81548173ffffffffffffffffffffffffffffffffffffffff021916908373ffffffffffffffffffffffffffffffffffffffff1602179055506003600081548092919061045d90610b71565b9190505550600067ffffffffffffffff81111561047d5761047c610bb9565b5b6040519080825280602002602001820160405280156104ab5781602001602082028036833780820191505090505b50600190805190602001906104c1929190610722565b5050565b6060600180548060200260200160405190810160405280929190818152602001828054801561054957602002820191906000526020600020905b8160009054906101000a900473ffffffffffffffffffffffffffffffffffffffff1673ffffffffffffffffffffffffffffffffffffffff16815260200190600101908083116104ff575b5050505050905090565b60008054906101000a900473ffffffffffffffffffffffffffffffffffffffff1681565b6000600354905090565b60008060009054906101000a900473ffffffffffffffffffffffffffffffffffffffff16426040516020016105b7929190610c51565b6040516020818303038152906040528051906020012060001c905090565b6060600280548060200260200160405190810160405280929190818152602001828054801561065957602002820191906000526020600020905b8160009054906101000a900473ffffffffffffffffffffffffffffffffffffffff1673ffffffffffffffffffffffffffffffffffffffff168152602001906001019080831161060f575b5050505050905090565b60035481565b67016345785d8a000034101561067e57600080fd5b6001339080600181540180825580915050600190039060005260206000200160009091909190916101000a81548173ffffffffffffffffffffffffffffffffffffffff021916908373ffffffffffffffffffffffffffffffffffffffff160217905550565b600181815481106106f357600080fd5b906000526020600020016000915054906101000a900473ffffffffffffffffffffffffffffffffffffffff1681565b82805482825590600052602060002090810192821561079b579160200282015b8281111561079a5782518260006101000a81548173ffffffffffffffffffffffffffffffffffffffff021916908373ffffffffffffffffffffffffffffffffffffffff16021790555091602001919060010190610742565b5b5090506107a891906107ac565b5090565b5b808211156107c55760008160009055506001016107ad565b5090565b6000819050919050565b6107dc816107c9565b82525050565b60006020820190506107f760008301846107d3565b92915050565b600080fd5b61080b816107c9565b811461081657600080fd5b50565b60008135905061082881610802565b92915050565b600060208284031215610844576108436107fd565b5b600061085284828501610819565b91505092915050565b600073ffffffffffffffffffffffffffffffffffffffff82169050919050565b60006108868261085b565b9050919050565b6108968161087b565b82525050565b60006020820190506108b1600083018461088d565b92915050565b600081519050919050565b600082825260208201905092915050565b6000819050602082019050919050565b60006108ee8261085b565b9050919050565b6108fe816108e3565b82525050565b600061091083836108f5565b60208301905092915050565b6000602082019050919050565b6000610934826108b7565b61093e81856108c2565b9350610949836108d3565b8060005b8381101561097a5781516109618882610904565b975061096c8361091c565b92505060018101905061094d565b5085935050505092915050565b600060208201905081810360008301526109a18184610929565b905092915050565b600081519050919050565b600082825260208201905092915050565b6000819050602082019050919050565b6109de8161087b565b82525050565b60006109f083836109d5565b60208301905092915050565b6000602082019050919050565b6000610a14826109a9565b610a1e81856109b4565b9350610a29836109c5565b8060005b83811015610a5a578151610a4188826109e4565b9750610a4c836109fc565b925050600181019050610a2d565b5085935050505092915050565b60006020820190508181036000830152610a818184610a09565b905092915050565b610a92816108e3565b82525050565b6000602082019050610aad6000830184610a89565b92915050565b7f4e487b7100000000000000000000000000000000000000000000000000000000600052601260045260246000fd5b6000610aed826107c9565b9150610af8836107c9565b925082610b0857610b07610ab3565b5b828206905092915050565b7f4e487b7100000000000000000000000000000000000000000000000000000000600052603260045260246000fd5b7f4e487b7100000000000000000000000000000000000000000000000000000000600052601160045260246000fd5b6000610b7c826107c9565b91507fffffffffffffffffffffffffffffffffffffffffffffffffffffffffffffffff8203610bae57610bad610b42565b5b600182019050919050565b7f4e487b7100000000000000000000000000000000000000000000000000000000600052604160045260246000fd5b60008160601b9050919050565b6000610c0082610be8565b9050919050565b6000610c1282610bf5565b9050919050565b610c2a610c258261087b565b610c07565b82525050565b6000819050919050565b610c4b610c46826107c9565b610c30565b82525050565b6000610c5d8285610c19565b601482019150610c6d8284610c3a565b602082019150819050939250505056fea2646970667358221220381c08f626c04238c4efc2d8f8ff3a82a181498a298236fa38ffedd1dbdb6b6764736f6c634300080f0033",
  "immutableReferences": {},
  "source": "// SPDX-License-Identifier: MIT\r\npragma solidity ^0.8.15;\r\n\r\ncontract Lottery\r\n{\r\n    //State  /Storage Variables\r\n    address public owner;           // owner of the contract\r\n    address payable[] public players;  // players participating in the lottery\r\n    address[] public winner;  // winner of the lottery\r\n\r\n    uint public lotteryId;  // unique Interger\r\n\r\n\r\n    // COnstructor- RUns when the contract is deployed\r\n\r\n    constructor()\r\n    {\r\n        owner = msg.sender;\r\n        lotteryId = 0;\r\n    }\r\n\r\n    //Functions - Enter\r\n\r\n    function enter() public payable\r\n    {\r\n        require(msg.value >= 0.1 ether);  // minimum 1 eth to participate\r\n        players.push(payable(msg.sender));  // players added to the pool of payable address  \r\n    }\r\n\r\n    // Function - Get Players\r\n\r\n    function getPlayers() public view returns (address payable[] memory)\r\n    {\r\n        return players;\r\n    }\r\n\r\n    // Function - Get Balance\r\n\r\n    function getBalance() public view returns (uint)\r\n    {\r\n        // Solidity works in WEI\r\n        return address(this).balance;\r\n    }\r\n\r\n\r\n    //Function - Get Lottery ID\r\n    function getLotteryId() public view returns (uint)\r\n    {\r\n        return lotteryId;\r\n    } \r\n\r\n    //Get random number - To pick a winner\r\n    function getRandomNumber() public view returns (uint)\r\n    {\r\n        return uint(keccak256(abi.encodePacked(owner, block.timestamp)));\r\n    }\r\n\r\n    //Pick a Winner!\r\n    function pickWinner() public\r\n    {\r\n        require(msg.sender==owner);\r\n        uint randomIndex = getRandomNumber() % players.length; // indexing starts from 0 -> n-1\r\n        players[randomIndex].transfer(address(this).balance);\r\n        winner.push(players[randomIndex]);\r\n        lotteryId++ ;\r\n\r\n        // Clear the players after lottery winner has been decided\r\n        players = new address payable[](0);\r\n    }\r\n\r\n    // Function ->Get Winner\r\n\r\n    function getWinners() public view returns (address[] memory)\r\n    {\r\n        return winner;\r\n    }\r\n}",
  "sourcePath": "c:\\Users\\SUBHABRATA KANJILAL\\lottery\\backend\\contracts\\Lottery.sol",
  "compiler": {
    "name": "solc",
    "version": "0.8.15+commit.e14f2714.Emscripten.clang"
  },
  "schemaVersion": "3.4.11",
  "updatedAt": "2022-12-03T08:59:18.598Z",
  "networkType": "ethereum",
  "devdoc": {
    "kind": "dev",
    "methods": {},
    "version": 1
  },
  "userdoc": {
    "kind": "user",
    "methods": {},
    "version": 1
  }
}